:020000040000FA
:1000000008020020D90000007F02000077020000F3
:1000100000000000000000000000000000000000E0
:100020000000000000000000000000008902000045
:10003000000000000000000081020000EF0000004E
:10004000E30200007D02000085020000390100008B
:10005000F10000003B0100003D0100003F010000F5
:1000600041010000310100003301000035010000B2
:100070002501000027010000DF020000E10200006E
:100080007302000075020000000000000000000084
:100090002B0100002D0100002F0100007B02000059
:1000A000000000008702000000000000D9020000EC
:1000B000DB020000DD02000029010000F100000069
:1000C0000448854600F01CF800480047050300007E
:1000D000C046C04608020020064908688546064812
:1000E000804706480047FEE7FEE7FEE7FEE7FEE73B
:1000F000FEE70000000000009D020000C1000000BB
:10010000064C0125064E05E0E36807CC2B430C3C6A
:1001100098471034B442F7D3FFF7D6FF9C03000092
:10012000BC030000704770477047704770477047C6
:100130007047704770477047704770477047704707
:10014000704700001722D2068218002A0AD0012325
:100150009B02D21A0DD0D21A12D003239B02D21ABC
:100160001DD114E03A4A126B10231A43384B1A631C
:1001700016E0374A126B20231A43354B1A630FE0FF
:10018000334A126B40231A43314B1A6308E0304A5A
:10019000126B01235B021A432D4B1A6300E000BF70
:1001A00000BF4A68002A04D1C2690B681A43C261C1
:1001B0004DE0C2690B689A43C26110234A681A4035
:1001C000102A34D102680B681A4302604A68112A67
:1001D00007D102690B681A430261C2680B689A432F
:1001E000C2604A68122A07D1C2680B681A43C2600B
:1001F00002690B689A430261426A0B689A43426241
:10020000826A0B689A43826281238A681A40812A33
:1002100003D1426A0B681A43426282238A681A40F9
:10022000822A14D1826A0B681A4382620FE0026844
:100230000B689A4302604A68202A04D142680B681E
:100240009A43426003E042680B681A434260704779
:10025000000001400246106D0840002801D0012036
:1002600070470020FCE7012A01D1C16500E08165EB
:1002700070477047704700BFFEE770477047704790
:100280007047704770477047704700000148024947
:100290000860704700127A000000002000B5FFF7E8
:1002A000F5FF0B4909884805400D0A498969C90AC3
:1002B000C9020143074A9161054949888805800DB3
:1002C0001146096A890A89020143116200BD0000D2
:1002D000000A1000000001407047704770477047E7
:1002E0007047704702E008C8121F08C1002AFAD1FF
:1002F00070477047002001E001C1121F002AFBD1A6
:10030000704700000EB50020009001900290214837
:10031000006B1021884310301E4908630F200090A5
:100320002020019069460920C006FFF70BFF03203B
:10033000000200901120019080200290694609205F
:10034000C006FFF7FFFE24E0FF2101310920C006AF
:10035000FFF780FF002806D0012203210920C006F4
:10036000FFF781FF05E0002203210920C006FFF707
:100370007AFF09480069012149020840002805D098
:1003800004200549C8610820086202E004200249EF
:100390008861D9E70000014040000048BC0300002C
:1003A0000000002004000000E4020000C003000080
:1003B0000400002004020000F402000000127A0091
:04000005000000C136
:00000001FF
