:020000040000FA
:1000000008020020D900000061040000590400002B
:1000100000000000000000000000000000000000E0
:100020000000000000000000000000005705000074
:1000300000000000000000008D040000EF00000040
:10004000AF0500005F040000530500001903000025
:10005000F10000001B0300001D0300001F0300004F
:10006000210300001103000013030000150300002A
:100070004901000089010000AB050000AD0500004A
:1000800055040000570400000000000000000000BC
:100090000B0300000D0300000F0300005D040000CF
:1000A000000000005505000000000000A50500004C
:1000B000A7050000A905000009030000F1000000E9
:1000C0000448854600F02EF800480047D10500009E
:1000D000C046C04608020020064908688546064812
:1000E000804706480047FEE7FEE7FEE7FEE7FEE73B
:1000F000FEE700000000000069050000C1000000EC
:10010000D2B201E00270401C491EFBD270470022AF
:10011000F6E710B513460A4604461946FFF7F0FF06
:10012000204610BD064C0125064E05E0E36807CCCD
:100130002B430C3C98471034B442F7D3FFF7C4FF6D
:100140002C0600004C06000070470000C143014A25
:1001500051617047002C01400449C96849084900B1
:10016000C207D20F1143014AD1607047002C0140F1
:100170000146044800690840002801D0012070476A
:100180000020FCE7002C014010B500F001F810BD84
:1001900010B501200004FFF7EBFF002806D0012076
:1001A0000004FFF7D3FF01200149086210BD0000E1
:1001B00040000048002905D0054AD2680243044B9C
:1001C000DA6004E0024AD2688243014BDA60704789
:1001D000002C014010B504462068002804D00121FD
:1001E000C9062068884200D103E0292139A000F027
:1001F000EEF9012189036068884202D06068002816
:1002000000D103E02A2133A000F0E1F901214903E4
:10021000A068884204D003210903A068884200D165
:1002200003E02B212BA000F0D2F92069002811D087
:10023000206910280ED0206920280BD02069302892
:1002400008D02069402805D02069602802D02069A4
:10025000702800D103E02C211EA000F0B8F96069DD
:10026000002802D06069042800D103E02D2119A0E4
:1002700000F0ADF961682068084321690843A1686E
:100280000843217B002901D0802100E000210843A0
:10029000616908431A49C9681A4A11400843184954
:1002A000C860A06908602121095DE069002902D0C9
:1002B000FF21013100E0002108432021095D0029D0
:1002C00002D00121490200E0002108430C494863A3
:1002D00010BD00002E2E5C2E2E5C2E2E5C2E2E5C71
:1002E0004C69627261726965735C7372635C637797
:1002F00033326C3033315F6174696D2E63000000FE
:10030000002C01400B8FFFF7704770477047704714
:100310007047704770477047704770477047704725
:1003200070470EB50020009001900290802002904E
:10033000202001900120009069460920C00600F0AD
:1003400001F80EBD1722D2068218002A0AD0012316
:100350009B02D21A0DD0D21A12D003239B02D21ABA
:100360001DD114E03A4A126B10231A43384B1A631A
:1003700016E0374A126B20231A43354B1A630FE0FD
:10038000334A126B40231A43314B1A6308E0304A58
:10039000126B01235B021A432D4B1A6300E000BF6E
:1003A00000BF4A68002A04D1C2690B681A43C261BF
:1003B0004DE0C2690B689A43C26110234A681A4033
:1003C000102A34D102680B681A4302604A68112A65
:1003D00007D102690B681A430261C2680B689A432D
:1003E000C2604A68122A07D1C2680B681A43C26009
:1003F00002690B689A430261426A0B689A4342623F
:10040000826A0B689A43826281238A681A40812A31
:1004100003D1426A0B681A43426282238A681A40F7
:10042000822A14D1826A0B681A4382620FE0026842
:100430000B689A4302604A68202A04D142680B681C
:100440009A43426003E042680B681A434260704777
:10045000000001407047704700BFFEE770477047DB
:100460007047000072B60D20002809DB00BF00BFF6
:10047000C206D20E01219140034A116000BF00BFA5
:1004800000BF62B67047000000E100E07047000066
:1004900010B5052000F010F80648406B8021084395
:1004A000044948630846006B10210843014908636A
:1004B00010BD00000000014010B50446062C0FD00E
:1004C000082C0DD0092C0BD0052C09D00B2C07D0F3
:1004D0000C2C05D00D2C03D00E2C01D00F2C00D1EC
:1004E00004E0FF210B310CA000F071F8E002154987
:1004F000098808431449886108464068134908433D
:100500001149486000BF104880690121C9030840B3
:100510008842F8D110BD00002E2E5C2E2E5C2E2EAF
:100520005C2E2E5C4C69627261726965735C7372D9
:10053000635C637733326C3033315F7263632E6395
:1005400000000000000A10000000014001005A5A9B
:10055000704770477047704701480249086070470C
:1005600000127A000000002000B5FFF7F5FF0B49EC
:1005700009884805400D0A498969C90AC902014329
:10058000074A9161054949888805800D1146096A25
:10059000890A89020143116200BD0000000A1000AF
:1005A00000000140704770477047704770477047C0
:1005B00002E008C8121F08C1002AFAD1704770472C
:1005C000002001E001C1121F002AFBD170477047D3
:1005D0008AB0242101A8FFF79AFDFFF759FFFFF722
:1005E000A0FEFFF73FFF012168460174002006903E
:1005F00048030390002001900290002108A8417157
:1006000000200590084807900020089008A8017174
:1006100001A8FFF7DFFD01210807FFF7CBFD01204F
:10062000FFF79AFD00BFFEE70F2700004C06000011
:100630000000002004000000B0050000500600008B
:100640000400002004020000C005000000127A002F
:04000005000000C136
:00000001FF
