:020000040000FA
:1000000008020020D9000000730200006B0200000B
:1000100000000000000000000000000000000000E0
:100020000000000000000000000000007D02000051
:10003000000000000000000075020000EF0000005A
:10004000D7020000710200007902000039010000AF
:10005000F10000003B0100003D0100003F010000F5
:1000600041010000310100003301000035010000B2
:100070002501000027010000D3020000D502000086
:10008000670200006902000000000000000000009C
:100090002B0100002D0100002F0100006F02000065
:1000A000000000007B02000000000000CD02000004
:1000B000CF020000D102000029010000F100000081
:1000C0000448854600F01CF800480047F90200008B
:1000D000C046C04608020020064908688546064812
:1000E000804706480047FEE7FEE7FEE7FEE7FEE73B
:1000F000FEE700000000000091020000C1000000C7
:10010000064C0125064E05E0E36807CC2B430C3C6A
:1001100098471034B442F7D3FFF7D6FFDC03000052
:10012000FC03000070477047704770477047704786
:100130007047704770477047704770477047704707
:10014000704700001722D2068218002A0AD0012325
:100150009B02D21A0DD0D21A12D003239B02D21ABC
:100160001DD114E03A4A126B10231A43384B1A631C
:1001700016E0374A126B20231A43354B1A630FE0FF
:10018000334A126B40231A43314B1A6308E0304A5A
:10019000126B01235B021A432D4B1A6300E000BF70
:1001A00000BF4A68002A04D1C2690B681A43C261C1
:1001B0004DE0C2690B689A43C26110234A681A4035
:1001C000102A34D102680B681A4302604A68112A67
:1001D00007D102690B681A430261C2680B689A432F
:1001E000C2604A68122A07D1C2680B681A43C2600B
:1001F00002690B689A430261426A0B689A43426241
:10020000826A0B689A43826281238A681A40812A33
:1002100003D1426A0B681A43426282238A681A40F9
:10022000822A14D1826A0B681A4382620FE0026844
:100230000B689A4302604A68202A04D142680B681E
:100240009A43426003E042680B681A434260704779
:10025000000001400246106D0840002801D0012036
:1002600070470020FCE77047704700BFFEE770470B
:10027000704770477047704770477047704700007D
:10028000014802490860704700127A00000000200F
:1002900000B5FFF7F5FF0B4909884805400D0A49ED
:1002A0008969C90AC9020143074A91610549498818
:1002B0008805800D1146096A890A89020143116285
:1002C00000BD0000000A10000000014070477047A8
:1002D000704770477047704702E008C8121F08C196
:1002E000002AFAD170477047002001E001C1121FB7
:1002F000002AFBD1704700000EB50026324D0020C9
:10030000009001900290002400E0641C2E4884427A
:10031000FBD3002400E0641C2B488442FBD3002460
:1003200000E0641C28488442FBD32848006B20214D
:1003300088432030254908630846006B40218843E4
:1003400040302249086348140090202001906946FB
:100350001F48FFF7F7FE0420009010200190802036
:10036000029069461B48FFF7EDFE2BE0002400E0F9
:10037000641CAC42FCD3002400E0641CAC42FCD3FF
:100380000120400312494031086204211148FFF75F
:1003900061FF002801D1002614E0002E12D10024B4
:1003A00000E0641C0C488442FBD304210948FFF799
:1003B00051FF012806D101260348854201D185005D
:1003C00000E0014DD2E7000060EA000000000140BB
:1003D0000008004800040048B80B0000FC030000BF
:1003E0000000002004000000D8020000000400000B
:1003F0000400002004020000E802000000127A005D
:04000005000000C136
:00000001FF
