:020000040000FA
:1000000008020020D90000007D02000075020000F7
:1000100000000000000000000000000000000000E0
:100020000000000000000000000000001F030000AE
:1000300000000000000000007F020000EF00000050
:10004000770300007B0200001B0300005101000049
:10005000F1000000530100005501000057010000AD
:10006000590100003101000033010000350100009A
:100070002501000027010000730300007503000044
:100080007102000073020000000000000000000088
:100090002B0100002D0100002F010000790200005B
:1000A000000000001D030000000000006D030000C0
:1000B0006F0300007103000029010000F10000003F
:1000C0000448854600F01CF80048004799030000EA
:1000D000C046C04608020020064908688546064812
:1000E000804706480047FEE7FEE7FEE7FEE7FEE73B
:1000F000FEE700000000000031030000C100000026
:10010000064C0125064E05E0E36807CC2B430C3C6A
:1001100098471034B442F7D3FFF7D6FFEC03000042
:100120000C04000070477047704770477047704775
:1001300070477047704701B504E068460088401E6C
:1001400081B20091684600880028F6D108BD70474A
:100150007047704770477047704700001722D206FB
:100160008218002A0AD001239B02D21A0DD0D21A7B
:1001700012D003239B02D21A1DD114E03A4A126B0B
:1001800010231A43384B1A6316E0374A126B2023A8
:100190001A43354B1A630FE0334A126B40231A435C
:1001A000314B1A6308E0304A126B01235B021A4399
:1001B0002D4B1A6300E000BF00BF4A68002A04D13B
:1001C000C2690B681A43C2614DE0C2690B689A4369
:1001D000C26110234A681A40102A34D102680B68A1
:1001E0001A4302604A68112A07D102690B681A4350
:1001F0000261C2680B689A43C2604A68122A07D13A
:10020000C2680B681A43C26002690B689A430261B4
:10021000426A0B689A434262826A0B689A4382621E
:1002200081238A681A40812A03D1426A0B681A43E3
:10023000426282238A681A40822A14D1826A0B6839
:100240001A4382620FE002680B689A4302604A68B0
:10025000202A04D142680B689A43426003E0426856
:100260000B681A4342607047000001400166704706
:100270007047704700BFFEE7704770477047704790
:1002800010B50446062C0FD0082C0DD0092C0BD02D
:10029000052C09D00B2C07D00C2C05D00D2C03D02D
:1002A0000E2C01D00F2C00D104E0FF210B310CA04B
:1002B00000F071F8E0021549098808431449886183
:1002C00008464068134908431149486000BF104878
:1002D00080690121C90308408842F8D110BD00009F
:1002E0002E2E5C2E2E5C2E2E5C2E2E5C4C696272A5
:1002F00061726965735C7372635C637733326C300F
:1003000033315F7263632E6300000000000A100047
:100310000000014001005A5A70477047704770470B
:10032000014802490860704700127A00000000206E
:1003300000B5FFF7F5FF0B4909884805400D0A494C
:100340008969C90AC9020143074A91610549498877
:100350008805800D1146096A890A890201431162E4
:1003600000BD0000000A1000000001407047704707
:10037000704770477047704702E008C8121F08C1F5
:10038000002AFAD170477047002001E001C1121F16
:10039000002AFBD1704770470EB5002000900190F5
:1003A00002900520FFF76CFF0D48006B40210843C9
:1003B0000B49086380200290202001900320000256
:1003C000009069460748FFF7C9FE07E003210902CC
:1003D0000448FFF74BFF0448FFF7ADFEF6E70000C7
:1003E0000000014000040048FFFF00000C04000072
:1003F000000000200400000078030000100400004A
:1004000004000020040200008803000000127A00AB
:04000005000000C136
:00000001FF
